{
  "contractName": "TodoList",
  "abi": [
    {
      "constant": true,
      "inputs": [],
      "name": "taskCount",
      "outputs": [
        {
          "internalType": "uint256",
          "name": "",
          "type": "uint256"
        }
      ],
      "payable": false,
      "stateMutability": "view",
      "type": "function"
    },
    {
      "constant": true,
      "inputs": [
        {
          "internalType": "uint256",
          "name": "",
          "type": "uint256"
        }
      ],
      "name": "tasks",
      "outputs": [
        {
          "internalType": "uint256",
          "name": "id",
          "type": "uint256"
        },
        {
          "internalType": "address",
          "name": "owner",
          "type": "address"
        },
        {
          "internalType": "string",
          "name": "content",
          "type": "string"
        },
        {
          "internalType": "bool",
          "name": "completed",
          "type": "bool"
        }
      ],
      "payable": false,
      "stateMutability": "view",
      "type": "function"
    },
    {
      "constant": true,
      "inputs": [
        {
          "internalType": "address",
          "name": "",
          "type": "address"
        }
      ],
      "name": "userToTaskCount",
      "outputs": [
        {
          "internalType": "uint256",
          "name": "",
          "type": "uint256"
        }
      ],
      "payable": false,
      "stateMutability": "view",
      "type": "function"
    },
    {
      "constant": false,
      "inputs": [
        {
          "internalType": "string",
          "name": "_content",
          "type": "string"
        }
      ],
      "name": "createTask",
      "outputs": [],
      "payable": false,
      "stateMutability": "nonpayable",
      "type": "function"
    },
    {
      "constant": false,
      "inputs": [
        {
          "internalType": "uint256",
          "name": "id",
          "type": "uint256"
        }
      ],
      "name": "markComplete",
      "outputs": [],
      "payable": false,
      "stateMutability": "nonpayable",
      "type": "function"
    },
    {
      "constant": true,
      "inputs": [],
      "name": "getTasksByOwner",
      "outputs": [
        {
          "internalType": "uint256[]",
          "name": "",
          "type": "uint256[]"
        }
      ],
      "payable": false,
      "stateMutability": "view",
      "type": "function"
    }
  ],
  "bytecode": "0x60806040526000805534801561001457600080fd5b5061068c806100246000396000f3fe608060405234801561001057600080fd5b50600436106100625760003560e01c8063111002aa1461006757806367067ed61461010f5780638d9776721461012c578063a9bc398f146101ec578063b6cb58a514610224578063e46ff6481461022c575b600080fd5b61010d6004803603602081101561007d57600080fd5b81019060208101813564010000000081111561009857600080fd5b8201836020820111156100aa57600080fd5b803590602001918460018302840111640100000000831117156100cc57600080fd5b91908080601f016020809104026020016040519081016040528093929190818152602001838380828437600092019190915250929550610284945050505050565b005b61010d6004803603602081101561012557600080fd5b50356103ad565b6101496004803603602081101561014257600080fd5b503561041e565b60405180858152602001846001600160a01b03166001600160a01b031681526020018060200183151515158152602001828103825284818151815260200191508051906020019080838360005b838110156101ae578181015183820152602001610196565b50505050905090810190601f1680156101db5780820380516001836020036101000a031916815260200191505b509550505050505060405180910390f35b6102126004803603602081101561020257600080fd5b50356001600160a01b03166104ef565b60408051918252519081900360200190f35b610212610501565b610234610507565b60408051602080825283518183015283519192839290830191858101910280838360005b83811015610270578181015183820152602001610258565b505050509050019250505060405180910390f35b608c8151111561029357600080fd5b60408051608081018252600080548252336020808401918252938301858152606084018390526001805480820180835591909452845160049094027fb10e2d527612073b26eecdfd717e6a320cf44b4afac2b0732d9fcbe2b7fa0cf6810194855592517fb10e2d527612073b26eecdfd717e6a320cf44b4afac2b0732d9fcbe2b7fa0cf7840180546001600160a01b03929092166001600160a01b031990921691909117905590518051919561036e937fb10e2d527612073b26eecdfd717e6a320cf44b4afac2b0732d9fcbe2b7fa0cf801929101906105bf565b50606091909101516003909101805460ff1916911515919091179055505060008054600190810182553382526002602052604090912080549091019055565b336001600160a01b0316600182815481106103c457fe5b60009182526020909120600160049092020101546001600160a01b0316146103eb57600080fd5b60018082815481106103f957fe5b60009182526020909120600490910201600301805460ff191691151591909117905550565b6001818154811061042b57fe5b6000918252602091829020600491909102018054600180830154600280850180546040805161010096831615969096026000190190911692909204601f81018890048802850188019092528184529396506001600160a01b03909116949192918301828280156104dc5780601f106104b1576101008083540402835291602001916104dc565b820191906000526020600020905b8154815290600101906020018083116104bf57829003601f168201915b5050506003909301549192505060ff1684565b60026020526000908152604090205481565b60005481565b33600090815260026020908152604080832054815181815281840281019093019091526060929183918015610546578160200160208202803883390190505b50905060005b6001548110156105b757336001600160a01b03166001828154811061056d57fe5b60009182526020909120600160049092020101546001600160a01b031614156105af578082848151811061059d57fe5b60209081029190910101526001909201915b60010161054c565b509150505b90565b828054600181600116156101000203166002900490600052602060002090601f016020900481019282601f1061060057805160ff191683800117855561062d565b8280016001018555821561062d579182015b8281111561062d578251825591602001919060010190610612565b5061063992915061063d565b5090565b6105bc91905b80821115610639576000815560010161064356fea265627a7a7231582096912fec5031af5b8efdd3887c528ec7d72562124c58c653dd1c1952bb603ec064736f6c63430005100032",
  "source": "// SPDX-License-Identifier: MIT\npragma solidity >=0.4.22 <0.9.0;\n\ncontract TodoList {\n  uint public taskCount = 0;\n\n    struct Task {\n        uint id;\n        address owner;\n        string content;\n        bool completed;\n    }\n\n    Task[] public tasks;\n    mapping (address => uint256) public userToTaskCount;\n\n    // creates new task specific to user making the transaction\n    function createTask(string memory _content) public {\n        require(bytes(_content).length <= 140); // set char limit to 140\n        tasks.push(Task(taskCount, msg.sender, _content, false));\n        taskCount++;\n        userToTaskCount[msg.sender]++;\n    }\n\n    // marks corresponding task as complete\n    function markComplete(uint id) public {\n        require(tasks[id].owner == msg.sender);\n        tasks[id].completed = true;\n    }\n\n    // TODO: POTENTIAL BUG! - view functions don't make transactions, so msg.sender can be faked (no private key required)\n    // TODO: but this is a todo list so maybe just leave it and use as education example\n    // gives user making the transaction an array of all task ids they own\n    function getTasksByOwner() external view returns (uint[] memory) {\n        uint counter = 0;\n        uint[] memory result = new uint[](userToTaskCount[msg.sender]);\n        for (uint id = 0; id < tasks.length; id++) {\n            if (tasks[id].owner == msg.sender) {\n                result[counter] = id;\n                counter++;\n            }\n        }\n        return result;\n    }\n}\n",
  "sourcePath": "/Users/taqihossain/Documents/Programming/Blockchain/TodoList/contracts/TodoList.sol",
  "compiler": {
    "name": "solc",
    "version": "0.5.16+commit.9c3226ce.Emscripten.clang"
  },
  "schemaVersion": "3.4.7",
  "updatedAt": "2022-08-22T19:55:31.604Z",
  "networkType": "ethereum",
  "devdoc": {
    "methods": {}
  },
  "userdoc": {
    "methods": {}
  }
}